{
  "contractName": "NapoleonXToken",
  "abi": [
    {
      "constant": true,
      "inputs": [],
      "name": "name",
      "outputs": [
        {
          "name": "",
          "type": "string"
        }
      ],
      "payable": false,
      "stateMutability": "view",
      "type": "function"
    },
    {
      "constant": false,
      "inputs": [
        {
          "name": "_spender",
          "type": "address"
        },
        {
          "name": "_value",
          "type": "uint256"
        }
      ],
      "name": "approve",
      "outputs": [
        {
          "name": "",
          "type": "bool"
        }
      ],
      "payable": false,
      "stateMutability": "nonpayable",
      "type": "function"
    },
    {
      "constant": true,
      "inputs": [],
      "name": "totalSupply",
      "outputs": [
        {
          "name": "",
          "type": "uint256"
        }
      ],
      "payable": false,
      "stateMutability": "view",
      "type": "function"
    },
    {
      "constant": false,
      "inputs": [
        {
          "name": "_from",
          "type": "address"
        },
        {
          "name": "_to",
          "type": "address"
        },
        {
          "name": "_value",
          "type": "uint256"
        }
      ],
      "name": "transferFrom",
      "outputs": [
        {
          "name": "",
          "type": "bool"
        }
      ],
      "payable": false,
      "stateMutability": "nonpayable",
      "type": "function"
    },
    {
      "constant": true,
      "inputs": [],
      "name": "INITIAL_SUPPLY",
      "outputs": [
        {
          "name": "",
          "type": "uint256"
        }
      ],
      "payable": false,
      "stateMutability": "view",
      "type": "function"
    },
    {
      "constant": true,
      "inputs": [],
      "name": "decimals",
      "outputs": [
        {
          "name": "",
          "type": "uint8"
        }
      ],
      "payable": false,
      "stateMutability": "view",
      "type": "function"
    },
    {
      "constant": true,
      "inputs": [],
      "name": "endTime",
      "outputs": [
        {
          "name": "",
          "type": "uint256"
        }
      ],
      "payable": false,
      "stateMutability": "view",
      "type": "function"
    },
    {
      "constant": false,
      "inputs": [
        {
          "name": "_spender",
          "type": "address"
        },
        {
          "name": "_subtractedValue",
          "type": "uint256"
        }
      ],
      "name": "decreaseApproval",
      "outputs": [
        {
          "name": "",
          "type": "bool"
        }
      ],
      "payable": false,
      "stateMutability": "nonpayable",
      "type": "function"
    },
    {
      "constant": true,
      "inputs": [
        {
          "name": "_owner",
          "type": "address"
        }
      ],
      "name": "balanceOf",
      "outputs": [
        {
          "name": "balance",
          "type": "uint256"
        }
      ],
      "payable": false,
      "stateMutability": "view",
      "type": "function"
    },
    {
      "constant": true,
      "inputs": [],
      "name": "symbol",
      "outputs": [
        {
          "name": "",
          "type": "string"
        }
      ],
      "payable": false,
      "stateMutability": "view",
      "type": "function"
    },
    {
      "constant": false,
      "inputs": [
        {
          "name": "_to",
          "type": "address"
        },
        {
          "name": "_value",
          "type": "uint256"
        }
      ],
      "name": "transfer",
      "outputs": [
        {
          "name": "",
          "type": "bool"
        }
      ],
      "payable": false,
      "stateMutability": "nonpayable",
      "type": "function"
    },
    {
      "constant": false,
      "inputs": [
        {
          "name": "_spender",
          "type": "address"
        },
        {
          "name": "_addedValue",
          "type": "uint256"
        }
      ],
      "name": "increaseApproval",
      "outputs": [
        {
          "name": "",
          "type": "bool"
        }
      ],
      "payable": false,
      "stateMutability": "nonpayable",
      "type": "function"
    },
    {
      "constant": true,
      "inputs": [
        {
          "name": "_owner",
          "type": "address"
        },
        {
          "name": "_spender",
          "type": "address"
        }
      ],
      "name": "allowance",
      "outputs": [
        {
          "name": "",
          "type": "uint256"
        }
      ],
      "payable": false,
      "stateMutability": "view",
      "type": "function"
    },
    {
      "inputs": [
        {
          "name": "setEndTime",
          "type": "uint256"
        }
      ],
      "payable": false,
      "stateMutability": "nonpayable",
      "type": "constructor"
    },
    {
      "anonymous": false,
      "inputs": [
        {
          "indexed": false,
          "name": "investor",
          "type": "address"
        },
        {
          "indexed": false,
          "name": "tokenAmount",
          "type": "uint256"
        }
      ],
      "name": "TokenAllocated",
      "type": "event"
    },
    {
      "anonymous": false,
      "inputs": [
        {
          "indexed": true,
          "name": "owner",
          "type": "address"
        },
        {
          "indexed": true,
          "name": "spender",
          "type": "address"
        },
        {
          "indexed": false,
          "name": "value",
          "type": "uint256"
        }
      ],
      "name": "Approval",
      "type": "event"
    },
    {
      "anonymous": false,
      "inputs": [
        {
          "indexed": true,
          "name": "from",
          "type": "address"
        },
        {
          "indexed": true,
          "name": "to",
          "type": "address"
        },
        {
          "indexed": false,
          "name": "value",
          "type": "uint256"
        }
      ],
      "name": "Transfer",
      "type": "event"
    },
    {
      "constant": false,
      "inputs": [
        {
          "name": "whitelisted",
          "type": "address[]"
        },
        {
          "name": "tokenAmount",
          "type": "uint256[]"
        }
      ],
      "name": "populateWhitelisted",
      "outputs": [],
      "payable": false,
      "stateMutability": "nonpayable",
      "type": "function"
    },
    {
      "constant": false,
      "inputs": [
        {
          "name": "whitelisted",
          "type": "address[]"
        },
        {
          "name": "tokenAmount",
          "type": "uint256[]"
        }
      ],
      "name": "updateWhitelisted",
      "outputs": [],
      "payable": false,
      "stateMutability": "nonpayable",
      "type": "function"
    },
    {
      "constant": false,
      "inputs": [
        {
          "name": "newAdministrator",
          "type": "address"
        }
      ],
      "name": "changeFounder",
      "outputs": [],
      "payable": false,
      "stateMutability": "nonpayable",
      "type": "function"
    }
  ],
  "bytecode": "0x60606040526040805190810160405280600f81526020017f4e61706f6c656f6e5820546f6b656e00000000000000000000000000000000008152506003908051906020019062000051929190620001ac565b506040805190810160405280600381526020017f4e50580000000000000000000000000000000000000000000000000000000000815250600490805190602001906200009f929190620001ac565b506002600560006101000a81548160ff021916908360ff16021790555063b19f31006006553415620000d057600080fd5b60405160208062001ae58339810160405280805190602001909190505033600860006101000a81548173ffffffffffffffffffffffffffffffffffffffff021916908373ffffffffffffffffffffffffffffffffffffffff160217905550600654600181905550600654600080600860009054906101000a900473ffffffffffffffffffffffffffffffffffffffff1673ffffffffffffffffffffffffffffffffffffffff1673ffffffffffffffffffffffffffffffffffffffff1681526020019081526020016000208190555080600781905550506200025b565b828054600181600116156101000203166002900490600052602060002090601f016020900481019282601f10620001ef57805160ff191683800117855562000220565b8280016001018555821562000220579182015b828111156200021f57825182559160200191906001019062000202565b5b5090506200022f919062000233565b5090565b6200025891905b80821115620002545760008160009055506001016200023a565b5090565b90565b61187a806200026b6000396000f3006060604052600436106100e6576000357c0100000000000000000000000000000000000000000000000000000000900463ffffffff16806306fdde03146100eb578063095ea7b31461017957806318160ddd146101d357806323b872dd146101fc5780632ff2e9dc14610275578063313ce5671461029e5780633197cbb6146102cd57806341ecfa1c146102f6578063661884631461039057806370a08231146103ea57806393c32e061461043757806395d89b4114610470578063a9059cbb146104fe578063a97c17c614610558578063d73dd623146105f2578063dd62ed3e1461064c575b600080fd5b34156100f657600080fd5b6100fe6106b8565b6040518080602001828103825283818151815260200191508051906020019080838360005b8381101561013e578082015181840152602081019050610123565b50505050905090810190601f16801561016b5780820380516001836020036101000a031916815260200191505b509250505060405180910390f35b341561018457600080fd5b6101b9600480803573ffffffffffffffffffffffffffffffffffffffff16906020019091908035906020019091905050610756565b604051808215151515815260200191505060405180910390f35b34156101de57600080fd5b6101e6610848565b6040518082815260200191505060405180910390f35b341561020757600080fd5b61025b600480803573ffffffffffffffffffffffffffffffffffffffff1690602001909190803573ffffffffffffffffffffffffffffffffffffffff16906020019091908035906020019091905050610852565b604051808215151515815260200191505060405180910390f35b341561028057600080fd5b610288610c0c565b6040518082815260200191505060405180910390f35b34156102a957600080fd5b6102b1610c12565b604051808260ff1660ff16815260200191505060405180910390f35b34156102d857600080fd5b6102e0610c25565b6040518082815260200191505060405180910390f35b341561030157600080fd5b61038e60048080359060200190820180359060200190808060200260200160405190810160405280939291908181526020018383602002808284378201915050505050509190803590602001908201803590602001908080602002602001604051908101604052809392919081815260200183836020028082843782019150505050505091905050610c2b565b005b341561039b57600080fd5b6103d0600480803573ffffffffffffffffffffffffffffffffffffffff16906020019091908035906020019091905050610d1e565b604051808215151515815260200191505060405180910390f35b34156103f557600080fd5b610421600480803573ffffffffffffffffffffffffffffffffffffffff16906020019091905050610faf565b6040518082815260200191505060405180910390f35b341561044257600080fd5b61046e600480803573ffffffffffffffffffffffffffffffffffffffff16906020019091905050610ff7565b005b341561047b57600080fd5b610483611097565b6040518080602001828103825283818151815260200191508051906020019080838360005b838110156104c35780820151818401526020810190506104a8565b50505050905090810190601f1680156104f05780820380516001836020036101000a031916815260200191505b509250505060405180910390f35b341561050957600080fd5b61053e600480803573ffffffffffffffffffffffffffffffffffffffff16906020019091908035906020019091905050611135565b604051808215151515815260200191505060405180910390f35b341561056357600080fd5b6105f060048080359060200190820180359060200190808060200260200160405190810160405280939291908181526020018383602002808284378201915050505050509190803590602001908201803590602001908080602002602001604051908101604052809392919081815260200183836020028082843782019150505050505091905050611354565b005b34156105fd57600080fd5b610632600480803573ffffffffffffffffffffffffffffffffffffffff16906020019091908035906020019091905050611585565b604051808215151515815260200191505060405180910390f35b341561065757600080fd5b6106a2600480803573ffffffffffffffffffffffffffffffffffffffff1690602001909190803573ffffffffffffffffffffffffffffffffffffffff16906020019091905050611781565b6040518082815260200191505060405180910390f35b60038054600181600116156101000203166002900480601f01602080910402602001604051908101604052809291908181526020018280546001816001161561010002031660029004801561074e5780601f106107235761010080835404028352916020019161074e565b820191906000526020600020905b81548152906001019060200180831161073157829003601f168201915b505050505081565b600081600260003373ffffffffffffffffffffffffffffffffffffffff1673ffffffffffffffffffffffffffffffffffffffff16815260200190815260200160002060008573ffffffffffffffffffffffffffffffffffffffff1673ffffffffffffffffffffffffffffffffffffffff168152602001908152602001600020819055508273ffffffffffffffffffffffffffffffffffffffff163373ffffffffffffffffffffffffffffffffffffffff167f8c5be1e5ebec7d5bd14f71427d1e84f3dd0314c0f7b2291e5b200ac8c7c3b925846040518082815260200191505060405180910390a36001905092915050565b6000600154905090565b60008073ffffffffffffffffffffffffffffffffffffffff168373ffffffffffffffffffffffffffffffffffffffff161415151561088f57600080fd5b6000808573ffffffffffffffffffffffffffffffffffffffff1673ffffffffffffffffffffffffffffffffffffffff1681526020019081526020016000205482111515156108dc57600080fd5b600260008573ffffffffffffffffffffffffffffffffffffffff1673ffffffffffffffffffffffffffffffffffffffff16815260200190815260200160002060003373ffffffffffffffffffffffffffffffffffffffff1673ffffffffffffffffffffffffffffffffffffffff16815260200190815260200160002054821115151561096757600080fd5b6109b8826000808773ffffffffffffffffffffffffffffffffffffffff1673ffffffffffffffffffffffffffffffffffffffff1681526020019081526020016000205461180890919063ffffffff16565b6000808673ffffffffffffffffffffffffffffffffffffffff1673ffffffffffffffffffffffffffffffffffffffff16815260200190815260200160002081905550610a4b826000808673ffffffffffffffffffffffffffffffffffffffff1673ffffffffffffffffffffffffffffffffffffffff1681526020019081526020016000205461182190919063ffffffff16565b6000808573ffffffffffffffffffffffffffffffffffffffff1673ffffffffffffffffffffffffffffffffffffffff16815260200190815260200160002081905550610b1c82600260008773ffffffffffffffffffffffffffffffffffffffff1673ffffffffffffffffffffffffffffffffffffffff16815260200190815260200160002060003373ffffffffffffffffffffffffffffffffffffffff1673ffffffffffffffffffffffffffffffffffffffff1681526020019081526020016000205461180890919063ffffffff16565b600260008673ffffffffffffffffffffffffffffffffffffffff1673ffffffffffffffffffffffffffffffffffffffff16815260200190815260200160002060003373ffffffffffffffffffffffffffffffffffffffff1673ffffffffffffffffffffffffffffffffffffffff168152602001908152602001600020819055508273ffffffffffffffffffffffffffffffffffffffff168473ffffffffffffffffffffffffffffffffffffffff167fddf252ad1be2c89b69c2b068fc378daa952ba7f163c4a11628f55a4df523b3ef846040518082815260200191505060405180910390a3600190509392505050565b60065481565b600560009054906101000a900460ff1681565b60075481565b60008282610c39828261183f565b1515610c4457600080fd5b600860009054906101000a900473ffffffffffffffffffffffffffffffffffffffff1673ffffffffffffffffffffffffffffffffffffffff163373ffffffffffffffffffffffffffffffffffffffff16141515610ca057600080fd5b600092505b8451831015610d1757610d09600860009054906101000a900473ffffffffffffffffffffffffffffffffffffffff168685815181101515610ce257fe5b906020019060200201518686815181101515610cfa57fe5b90602001906020020151610852565b508280600101935050610ca5565b5050505050565b600080600260003373ffffffffffffffffffffffffffffffffffffffff1673ffffffffffffffffffffffffffffffffffffffff16815260200190815260200160002060008573ffffffffffffffffffffffffffffffffffffffff1673ffffffffffffffffffffffffffffffffffffffff16815260200190815260200160002054905080831115610e2f576000600260003373ffffffffffffffffffffffffffffffffffffffff1673ffffffffffffffffffffffffffffffffffffffff16815260200190815260200160002060008673ffffffffffffffffffffffffffffffffffffffff1673ffffffffffffffffffffffffffffffffffffffff16815260200190815260200160002081905550610ec3565b610e42838261180890919063ffffffff16565b600260003373ffffffffffffffffffffffffffffffffffffffff1673ffffffffffffffffffffffffffffffffffffffff16815260200190815260200160002060008673ffffffffffffffffffffffffffffffffffffffff1673ffffffffffffffffffffffffffffffffffffffff168152602001908152602001600020819055505b8373ffffffffffffffffffffffffffffffffffffffff163373ffffffffffffffffffffffffffffffffffffffff167f8c5be1e5ebec7d5bd14f71427d1e84f3dd0314c0f7b2291e5b200ac8c7c3b925600260003373ffffffffffffffffffffffffffffffffffffffff1673ffffffffffffffffffffffffffffffffffffffff16815260200190815260200160002060008873ffffffffffffffffffffffffffffffffffffffff1673ffffffffffffffffffffffffffffffffffffffff168152602001908152602001600020546040518082815260200191505060405180910390a3600191505092915050565b60008060008373ffffffffffffffffffffffffffffffffffffffff1673ffffffffffffffffffffffffffffffffffffffff168152602001908152602001600020549050919050565b600860009054906101000a900473ffffffffffffffffffffffffffffffffffffffff1673ffffffffffffffffffffffffffffffffffffffff163373ffffffffffffffffffffffffffffffffffffffff1614151561105357600080fd5b80600860006101000a81548173ffffffffffffffffffffffffffffffffffffffff021916908373ffffffffffffffffffffffffffffffffffffffff16021790555050565b60048054600181600116156101000203166002900480601f01602080910402602001604051908101604052809291908181526020018280546001816001161561010002031660029004801561112d5780601f106111025761010080835404028352916020019161112d565b820191906000526020600020905b81548152906001019060200180831161111057829003601f168201915b505050505081565b60008073ffffffffffffffffffffffffffffffffffffffff168373ffffffffffffffffffffffffffffffffffffffff161415151561117257600080fd5b6000803373ffffffffffffffffffffffffffffffffffffffff1673ffffffffffffffffffffffffffffffffffffffff1681526020019081526020016000205482111515156111bf57600080fd5b611210826000803373ffffffffffffffffffffffffffffffffffffffff1673ffffffffffffffffffffffffffffffffffffffff1681526020019081526020016000205461180890919063ffffffff16565b6000803373ffffffffffffffffffffffffffffffffffffffff1673ffffffffffffffffffffffffffffffffffffffff168152602001908152602001600020819055506112a3826000808673ffffffffffffffffffffffffffffffffffffffff1673ffffffffffffffffffffffffffffffffffffffff1681526020019081526020016000205461182190919063ffffffff16565b6000808573ffffffffffffffffffffffffffffffffffffffff1673ffffffffffffffffffffffffffffffffffffffff168152602001908152602001600020819055508273ffffffffffffffffffffffffffffffffffffffff163373ffffffffffffffffffffffffffffffffffffffff167fddf252ad1be2c89b69c2b068fc378daa952ba7f163c4a11628f55a4df523b3ef846040518082815260200191505060405180910390a36001905092915050565b600080600754804210151561136857600080fd5b600860009054906101000a900473ffffffffffffffffffffffffffffffffffffffff1673ffffffffffffffffffffffffffffffffffffffff163373ffffffffffffffffffffffffffffffffffffffff161415156113c457600080fd5b84846113d0828261183f565b15156113db57600080fd5b600094505b865185101561157c5760008088878151811015156113fa57fe5b9060200190602002015173ffffffffffffffffffffffffffffffffffffffff1673ffffffffffffffffffffffffffffffffffffffff168152602001908152602001600020549350858581518110151561144f57fe5b90602001906020020151600080898881518110151561146a57fe5b9060200190602002015173ffffffffffffffffffffffffffffffffffffffff1673ffffffffffffffffffffffffffffffffffffffff1681526020019081526020016000208190555085858151811015156114c057fe5b906020019060200201518460015403016001819055507f355d073376c545ace08b6df926659a4228940d3214a213a7f300f2ad3ca10ce2878681518110151561150557fe5b90602001906020020151878781518110151561151d57fe5b90602001906020020151604051808373ffffffffffffffffffffffffffffffffffffffff1673ffffffffffffffffffffffffffffffffffffffff1681526020018281526020019250505060405180910390a184806001019550506113e0565b50505050505050565b600061161682600260003373ffffffffffffffffffffffffffffffffffffffff1673ffffffffffffffffffffffffffffffffffffffff16815260200190815260200160002060008673ffffffffffffffffffffffffffffffffffffffff1673ffffffffffffffffffffffffffffffffffffffff1681526020019081526020016000205461182190919063ffffffff16565b600260003373ffffffffffffffffffffffffffffffffffffffff1673ffffffffffffffffffffffffffffffffffffffff16815260200190815260200160002060008573ffffffffffffffffffffffffffffffffffffffff1673ffffffffffffffffffffffffffffffffffffffff168152602001908152602001600020819055508273ffffffffffffffffffffffffffffffffffffffff163373ffffffffffffffffffffffffffffffffffffffff167f8c5be1e5ebec7d5bd14f71427d1e84f3dd0314c0f7b2291e5b200ac8c7c3b925600260003373ffffffffffffffffffffffffffffffffffffffff1673ffffffffffffffffffffffffffffffffffffffff16815260200190815260200160002060008773ffffffffffffffffffffffffffffffffffffffff1673ffffffffffffffffffffffffffffffffffffffff168152602001908152602001600020546040518082815260200191505060405180910390a36001905092915050565b6000600260008473ffffffffffffffffffffffffffffffffffffffff1673ffffffffffffffffffffffffffffffffffffffff16815260200190815260200160002060008373ffffffffffffffffffffffffffffffffffffffff1673ffffffffffffffffffffffffffffffffffffffff16815260200190815260200160002054905092915050565b600082821115151561181657fe5b818303905092915050565b600080828401905083811015151561183557fe5b8091505092915050565b600081518351149050929150505600a165627a7a723058201eb6eea6aa4c6de11102cf77169e508a80d7dc8f9e4821b68c78da4f92fa84290029",
  "source": "pragma solidity ^0.4.17;\n\nimport 'zeppelin-solidity/contracts/token/ERC20/StandardToken.sol';\n\ncontract NapoleonXToken is StandardToken {\n  string public name = 'NapoleonX Token';\n  string public symbol = 'NPX';\n  uint8 public decimals = 2;\n  uint public INITIAL_SUPPLY = 2980000000;\n\n  uint public endTime;\n  address napoleonXAdministrator;\n\n  modifier only_napoleonXAdministrator {\n    require(msg.sender == napoleonXAdministrator);\n    _;\n  }\n\n  modifier is_earlier_than(uint x) {\n      require(now < x);\n      _;\n  }\n\n  function isEqualLength(address[] x, uint[] y) internal returns (bool) { return x.length == y.length; }\n  modifier onlySameLengthArray(address[] x, uint[] y) {\n      require(isEqualLength(x,y));\n      _;\n  }\n\n  event TokenAllocated(address investor, uint tokenAmount);\n\n  function NapoleonXToken(uint setEndTime) public {\n    napoleonXAdministrator = msg.sender;\n    totalSupply_= INITIAL_SUPPLY;\n    balances[napoleonXAdministrator] = INITIAL_SUPPLY;\n    endTime = setEndTime;\n  }\n\n  function populateWhitelisted(address[] whitelisted, uint[] tokenAmount) onlySameLengthArray(whitelisted, tokenAmount) only_napoleonXAdministrator {\n    for (uint i = 0; i < whitelisted.length; i++) {\n        transferFrom(napoleonXAdministrator, whitelisted[i], tokenAmount[i]);\n    }\n  }\n\n  function updateWhitelisted(address[] whitelisted, uint[] tokenAmount) is_earlier_than(endTime) only_napoleonXAdministrator onlySameLengthArray(whitelisted, tokenAmount) {\n    for (uint i = 0; i < whitelisted.length; i++) {\n      uint previousAmount = balances[whitelisted[i]];\n      balances[whitelisted[i]] = tokenAmount[i];\n      totalSupply_ = totalSupply_-previousAmount+tokenAmount[i];\n      TokenAllocated(whitelisted[i], tokenAmount[i]);\n    }\n}\n\nfunction changeFounder(address newAdministrator) only_napoleonXAdministrator {\n    napoleonXAdministrator = newAdministrator;\n}\n\n\n\n\n}\n",
  "sourcePath": "/home/sduprey/My_Truffle_Project/NAPOLEONX_TOKEN/contracts/NapoleonXToken.sol",
  "compiler": {
    "name": "solc",
    "version": "0.4.19+commit.c4cbbb05.Emscripten.clang"
  },
  "schemaVersion": "1.0.1",
  "updatedAt": "2018-03-07T16:24:45.547Z"
}